:1000000007C1000033C1000031C100002FC1000052
:100010002DC100002BC1000029C1000027C1000034
:1000200025C1000023C1000021C100001FC1000044
:100030001DC100001BC1000019C1000017C1000054
:1000400015C1000013C1000011C100000FC1000064
:100050000DC100000BC1000009C1000028C4000050
:1000600005C10000FBC30000D0C30000FFC00000BA
:10007000FDC00000FBC00000F9C00000F7C0000098
:10008000F5C00000F3C00000F1C00000EFC00000A8
:10009000EDC00000EBC00000E9C00000E7C00000B8
:1000A000E5C00000E3C00000E1C00000DFC00000C8
:1000B000DDC00000DBC00000D9C00000D7C00000D8
:1000C000D5C00000D3C00000D1C0000075C300003F
:1000D0004AC30000CBC00000C9C00000C7C0000078
:1000E000C5C00000CB02CE02BD02C102C50205039D
:1000F000D202D602DC02E002E402EA02EE02F202DE
:100100000503F802FC020003000021002400270080
:100110002A002D0030003300010100000401070116
:100120000A0100002200250028002B002E003100CB
:10013000340002010000050108010B010505050559
:10014000070508080808020202020A0A080804044F
:10015000040401010101010101010303030303037D
:100160000303040707070C0C0C0C0C0C0C0C02020C
:10017000020206060606060606060B0B0B0B0B0B09
:100180000B0B010210202008081020401020408096
:10019000020102010804020101020408102040804B
:1001A00080402010080402018004020180402010D9
:1001B0000804020108040201010204081020408022
:1001C000010204081020408000000A0B02090C0DF7
:1001D0000E080703040100000000000000000000FA
:1001E000000000000000000000000000000000000F
:1001F00000000000121110000000000000000000CC
:100200000000000000000000000000000000A10449
:1002100011241FBECFEFD1E2DEBFCDBF00E00CBF87
:1002200012E0A0E0B2E0E6E0FCE000E00BBF02C0BC
:1002300007900D92A031B107D9F723E0A0E1B2E019
:1002400001C01D92A335B207E1F711E0C8E0D1E08B
:1002500000E005C021970109802FFE01C6D4C730F8
:10026000D10780E00807B1F7BFD3CBC4C9CEFC01EA
:10027000A089B18982E08C93A485B5851C92A6855E
:10028000B78580E18C93108EA489B58986E08C9324
:10029000A289B3898C9180618C93A289B3898C9156
:1002A00088608C93A289B3898C9180688C93028832
:1002B000F389E02D80818F7D80830895CF92DF9236
:1002C000EF92FF920F931F93CF93DF936C017A010C
:1002D0008B01C0E0D0E0CE15DF0589F0D8016D912B
:1002E0008D01D601ED91FC910190F081E02DC601C8
:1002F0001995892B11F47E0102C02196ECCFC7011C
:10030000DF91CF911F910F91FF90EF90DF90CF90F1
:100310000895FC01A089B1898C91A689B78982FDD5
:100320000FC09C91818D8F5F8F73228D821749F052
:10033000218DDF01A20FB11D5D969C93818F0895E1
:100340008C910895FC01918D828D981761F0828DBA
:10035000DF01A80FB11D5D968C91928D9F5F9F73F9
:10036000928F90E008958FEF9FEF0895FC01918D9B
:10037000828D981731F0828DE80FF11D858D90E008
:1003800008958FEF9FEF0895FC01918D228D892FA5
:1003900090E0805C9F4F821B91098F73992708958D
:1003A00089E192E0F1DF21E0892B09F420E0822F3E
:1003B000089586EB92E0E8DF21E0892B09F420E044
:1003C000822F0895FC01848DDF01A80FB11DA35A6F
:1003D000BF4F2C91848D90E001968F739927848F65
:1003E000A689B7892C93A089B1898C9180648C935C
:1003F000938D848D981306C00288F389E02D808147
:100400008F7D80830895EF92FF920F931F93CF9378
:10041000DF93EC0181E0888F9B8D8C8D981305C054
:10042000E889F989808185FD23C0F62E0B8D10E0C7
:100430000F5F1F4F0F731127E02E8C8DE8120BC03A
:100440000FB607FCFACFE889F989808185FFF5CFDF
:10045000CE01B8DFF2CF8B8DFE01E80FF11DE35A1C
:10046000FF4FF0820B8FEA89FB898081806207C091
:10047000EE89FF896083E889F989808180648083BF
:1004800081E090E0DF91CF911F910F91FF90EF906D
:100490000895CF93DF93EC01888D8823C1F0EA891A
:1004A000FB89808185FD05C0A889B9898C9186FD6D
:1004B0000EC00FB607FCF5CF808185FFF2CFA8896B
:1004C000B9898C9185FFEDCFCE017CDFE8CFDF913C
:1004D000CF91089580E090E0892B19F06ADF8111B7
:1004E00020C080E090E0892B41F080E090E0892BF3
:1004F00021F00E940000811117C080E090E0892B5C
:1005000019F04EDF811113C080E090E0892BA1F03B
:1005100080E090E0892B81F00E94000081110AC0E8
:1005200008950E940000DDCF0E940000E6CF0E94E7
:100530000000EACF0C9400000895362F90E0FC01F3
:10054000E853FE4F4491FC01EE57FE4F2491FC010D
:10055000E45CFE4F9491992309F46AC0442309F4A2
:1005600054C050E0FA013197E231F10508F04DC076
:100570008827EE58FF4F8F4F38C3809180008F77C8
:1005800007C0809180008F7D03C080918000877FAD
:10059000809380003AC084B58F7702C084B58F7D88
:1005A00084BD33C08091B0008F7703C08091B000CC
:1005B0008F7D8093B00029C0809190008F7707C015
:1005C000809190008F7D03C080919000877F809301
:1005D00090001BC08091A0008F7707C08091A00081
:1005E0008F7D03C08091A000877F8093A0000DC005
:1005F000809120018F7707C0809120018F7D03C0FB
:1006000080912001877F80932001E92FF0E0EE0F99
:10061000FF1FEE5DFE4FA591B4918FB7F894EC915A
:10062000311103C020952E2301C02E2B2C938FBF98
:100630000895CF93DF9390E0FC01EE57FE4F249195
:10064000FC01E45CFE4F8491882361F190E0880F07
:10065000991FFC01E85FFE4FC591D491FC01EE5D4E
:10066000FE4FA591B491611109C09FB7F89488819C
:10067000209582238883EC912E230BC0623061F495
:100680009FB7F8943881822F809583238883EC91DB
:100690002E2B2C939FBF06C08FB7F894E8812E2B8A
:1006A00028838FBFDF91CF9108953FB7F894809151
:1006B000150290911602A0911702B091180226B56A
:1006C000A89B05C02F3F19F00196A11DB11D3FBF8A
:1006D000BA2FA92F982F8827820F911DA11DB11D18
:1006E000BC01CD0142E0660F771F881F991F4A9514
:1006F000D1F708958F929F92AF92BF92CF92DF92DF
:10070000EF92FF926B017C01D0DF4B015C01C114C1
:10071000D104E104F104E9F0C8DFDC01CB01881960
:100720009909AA09BB09883E9340A105B10578F350
:1007300021E0C21AD108E108F10888EE880E83E0B2
:10074000981EA11CB11CC114D104E104F10421F7CD
:10075000DECFFF90EF90DF90CF90BF90AF909F9053
:100760008F9008954AD21F920F920FB60F921124C4
:100770000BB60F922F933F934F935F936F937F939B
:100780008F939F93AF93BF93EF93FF9389E192E091
:1007900019DEFF91EF91BF91AF919F918F917F9162
:1007A0006F915F914F913F912F910F900BBE0F90E2
:1007B0000FBE0F901F9018951F920F920FB60F92B9
:1007C00011240BB60F922F933F934F935F936F9328
:1007D0007F938F939F93AF93BF93EF93FF9389E1A1
:1007E00092E097DDFF91EF91BF91AF919F918F9133
:1007F0007F916F915F914F913F912F910F900BBE21
:100800000F900FBE0F901F9018951F920F920FB66A
:100810000F9211240BB60F922F933F934F935F9338
:100820006F937F938F939F93AF93BF93EF93FF93B8
:1008300086EB92E0C7DDFF91EF91BF91AF919F9161
:100840008F917F916F915F914F913F912F910F9079
:100850000BBE0F900FBE0F901F9018951F920F9216
:100860000FB60F9211240BB60F922F933F934F9315
:100870005F936F937F938F939F93AF93BF93EF9308
:10088000FF9386EB92E045DDFF91EF91BF91AF9131
:100890009F918F917F916F915F914F913F912F9198
:1008A0000F900BBE0F900FBE0F901F9018951F92C8
:1008B0000F920FB60F9211242F933F938F939F9314
:1008C000AF93BF938091110290911202A0911302F5
:1008D000B09114023091100223E0230F2D3720F441
:1008E0000196A11DB11D05C026E8230F0296A11D8A
:1008F000B11D209310028093110290931202A093D5
:100900001302B09314028091150290911602A091E7
:100910001702B09118020196A11DB11D8093150216
:1009200090931602A0931702B0931802BF91AF9153
:100930009F918F913F912F910F900FBE0F901F901D
:100940001895E9E1F2E01382128248EE53E060E08C
:1009500070E0448355836683778384E092E09183DB
:10096000808325ED30E03587248724ED30E037871C
:10097000268720ED30E0318B208B21ED30E0338B6A
:10098000228B22ED30E0358B248B26ED30E0378B47
:10099000268B118E128E138E148EE6EBF2E01382EC
:1009A000128244835583668377839183808385ECA9
:1009B00090E09587848784EC90E09787868780EC29
:1009C00090E0918B808B81EC90E0938B828B82EC1A
:1009D00090E0958B848B86EC90E0978B868B118EC4
:1009E000128E138E148E0895789484B5826084BD1F
:1009F00084B5816084BD85B5826085BD85B5816023
:100A000085BD80916E00816080936E0010928100A0
:100A1000809181008260809381008091810081605B
:100A2000809381008091800081608093800080911C
:100A3000B10084608093B1008091B00081608093A8
:100A4000B00080919100826080939100809191002C
:100A500081608093910080919000816080939000EC
:100A60008091A10082608093A1008091A1008160AB
:100A70008093A1008091A00081608093A00080916C
:100A80002101826080932101809121018160809306
:100A900021018091200181608093200180917A0062
:100AA000846080937A0080917A00826080937A00DB
:100AB00080917A00816080937A0080917A008068CA
:100AC00080937A001092C100CEE160E08C2FB1DDFE
:100AD00061E08C2F32DDCF5FC632B9F7D6E360E03C
:100AE0008D2FA7DD60E08D2F28DDDF5FDE33B9F7C6
:100AF00061E08C2F9EDDCF5FCE32D1F761E082E0E6
:100B000098DD61E083E095DD61E084E092DD61E005
:100B100085E08FDD61E086E08CDD61E087E089DDE6
:100B200061E08DE086DD80910101846080930101A8
:100B30008091020184608093020168EC70E080E0A3
:100B400090E0D8DD809102018B7F8093020161E00B
:100B500089E16FDD61E089E1F0DC61E088E169DD78
:100B600061E088E1EADC61E087E163DD61E087E183
:100B7000E4DC61E086E15DDD61E086E1DEDC61E030
:100B80008AE157DD61E08AE1D8DC60E086E1D5DC0E
:100B900060E089E1D2DC6AEF70E080E090E0AADDFD
:100BA00061E089E1CADC61E086E1C7DC89E192E0CD
:100BB0005EDB86EB92E05BDB89E192E0E5DB892B93
:100BC00039F089E192E0BEDB682F86EB92E01BDC16
:100BD00086EB92E0D9DB892B79F386EB92E0B2DBEE
:100BE000682F89E192E00FDCE7CFEE0FFF1F881F2F
:100BF0008BBF0790F691E02D199481E090E0F89476
:060C000000C0F894FFCFD4
:100C06000000000003025E01C401A201B601490210
:00000001FF
